{
  "contractName": "Lottery",
  "abi": [
    {
      "constant": true,
      "inputs": [
        {
          "name": "",
          "type": "uint256"
        }
      ],
      "name": "userAddresses",
      "outputs": [
        {
          "name": "",
          "type": "address"
        }
      ],
      "payable": false,
      "stateMutability": "view",
      "type": "function"
    },
    {
      "constant": true,
      "inputs": [],
      "name": "owner",
      "outputs": [
        {
          "name": "",
          "type": "address"
        }
      ],
      "payable": false,
      "stateMutability": "view",
      "type": "function"
    },
    {
      "constant": true,
      "inputs": [
        {
          "name": "",
          "type": "address"
        }
      ],
      "name": "users",
      "outputs": [
        {
          "name": "userAddress",
          "type": "address"
        },
        {
          "name": "tokensBought",
          "type": "uint256"
        }
      ],
      "payable": false,
      "stateMutability": "view",
      "type": "function"
    },
    {
      "inputs": [
        {
          "name": "_winningGuess",
          "type": "uint256"
        }
      ],
      "payable": false,
      "stateMutability": "nonpayable",
      "type": "constructor"
    },
    {
      "constant": true,
      "inputs": [
        {
          "name": "_user",
          "type": "address"
        }
      ],
      "name": "userTokens",
      "outputs": [
        {
          "name": "",
          "type": "uint256"
        }
      ],
      "payable": false,
      "stateMutability": "view",
      "type": "function"
    },
    {
      "constant": true,
      "inputs": [
        {
          "name": "_user",
          "type": "address"
        }
      ],
      "name": "userGuesses",
      "outputs": [
        {
          "name": "",
          "type": "uint256[]"
        }
      ],
      "payable": false,
      "stateMutability": "view",
      "type": "function"
    },
    {
      "constant": true,
      "inputs": [],
      "name": "winningGuess",
      "outputs": [
        {
          "name": "",
          "type": "bytes32"
        }
      ],
      "payable": false,
      "stateMutability": "view",
      "type": "function"
    },
    {
      "constant": false,
      "inputs": [],
      "name": "makeUser",
      "outputs": [],
      "payable": false,
      "stateMutability": "nonpayable",
      "type": "function"
    },
    {
      "constant": false,
      "inputs": [],
      "name": "addTokens",
      "outputs": [],
      "payable": true,
      "stateMutability": "payable",
      "type": "function"
    },
    {
      "constant": false,
      "inputs": [
        {
          "name": "_userGuess",
          "type": "uint256"
        }
      ],
      "name": "makeGuess",
      "outputs": [],
      "payable": false,
      "stateMutability": "nonpayable",
      "type": "function"
    },
    {
      "constant": false,
      "inputs": [],
      "name": "closeGame",
      "outputs": [
        {
          "name": "",
          "type": "address"
        }
      ],
      "payable": false,
      "stateMutability": "nonpayable",
      "type": "function"
    },
    {
      "constant": false,
      "inputs": [],
      "name": "winnerAddress",
      "outputs": [
        {
          "name": "",
          "type": "address"
        }
      ],
      "payable": false,
      "stateMutability": "nonpayable",
      "type": "function"
    },
    {
      "constant": false,
      "inputs": [],
      "name": "getPrice",
      "outputs": [
        {
          "name": "",
          "type": "uint256"
        }
      ],
      "payable": false,
      "stateMutability": "nonpayable",
      "type": "function"
    }
  ],
  "bytecode": "0x6060604052341561000f57600080fd5b604051602080610e6e8339810160405280805190602001909190505033600260006101000a81548173ffffffffffffffffffffffffffffffffffffffff021916908373ffffffffffffffffffffffffffffffffffffffff160217905550806040518082815260200191505060405180910390206003816000191690555050610dd28061009c6000396000f300606060405236156100b8576000357c0100000000000000000000000000000000000000000000000000000000900463ffffffff16806322666da6146100bd578063445a5fa3146100e0578063502c9bd51461016e578063786b844b146101d15780638da5cb5b1461022657806398d5fdca1461027b57806398da61af146102a4578063a87430ba146102d5578063d18a524a14610355578063d5f4f0b31461036a578063ed498fa814610374578063ed7a4e0b146103c1575b600080fd5b34156100c857600080fd5b6100de6004808035906020019091905050610416565b005b34156100eb57600080fd5b610117600480803573ffffffffffffffffffffffffffffffffffffffff16906020019091905050610531565b6040518080602001828103825283818151815260200191508051906020019060200280838360005b8381101561015a57808201518184015260208101905061013f565b505050509050019250505060405180910390f35b341561017957600080fd5b61018f60048080359060200190919050506105d0565b604051808273ffffffffffffffffffffffffffffffffffffffff1673ffffffffffffffffffffffffffffffffffffffff16815260200191505060405180910390f35b34156101dc57600080fd5b6101e461060f565b604051808273ffffffffffffffffffffffffffffffffffffffff1673ffffffffffffffffffffffffffffffffffffffff16815260200191505060405180910390f35b341561023157600080fd5b61023961067f565b604051808273ffffffffffffffffffffffffffffffffffffffff1673ffffffffffffffffffffffffffffffffffffffff16815260200191505060405180910390f35b341561028657600080fd5b61028e6106a5565b6040518082815260200191505060405180910390f35b34156102af57600080fd5b6102b76108e3565b60405180826000191660001916815260200191505060405180910390f35b34156102e057600080fd5b61030c600480803573ffffffffffffffffffffffffffffffffffffffff169060200190919050506108ed565b604051808373ffffffffffffffffffffffffffffffffffffffff1673ffffffffffffffffffffffffffffffffffffffff1681526020018281526020019250505060405180910390f35b341561036057600080fd5b610368610931565b005b610372610a5d565b005b341561037f57600080fd5b6103ab600480803573ffffffffffffffffffffffffffffffffffffffff16906020019091905050610b6f565b6040518082815260200191505060405180910390f35b34156103cc57600080fd5b6103d4610bba565b604051808273ffffffffffffffffffffffffffffffffffffffff1673ffffffffffffffffffffffffffffffffffffffff16815260200191505060405180910390f35b620f424081108015610469575060008060003373ffffffffffffffffffffffffffffffffffffffff1673ffffffffffffffffffffffffffffffffffffffff16815260200190815260200160002060010154115b151561047457600080fd5b6000803373ffffffffffffffffffffffffffffffffffffffff1673ffffffffffffffffffffffffffffffffffffffff16815260200190815260200160002060020180548060010182816104c79190610d15565b9160005260206000209001600083909190915055506000803373ffffffffffffffffffffffffffffffffffffffff1673ffffffffffffffffffffffffffffffffffffffff168152602001908152602001600020600101600081548092919060019003919050555050565b610539610d41565b6000808373ffffffffffffffffffffffffffffffffffffffff1673ffffffffffffffffffffffffffffffffffffffff1681526020019081526020016000206002018054806020026020016040519081016040528092919081815260200182805480156105c457602002820191906000526020600020905b8154815260200190600101908083116105b0575b50505050509050919050565b6001818154811015156105df57fe5b90600052602060002090016000915054906101000a900473ffffffffffffffffffffffffffffffffffffffff1681565b6000803373ffffffffffffffffffffffffffffffffffffffff16600260009054906101000a900473ffffffffffffffffffffffffffffffffffffffff1673ffffffffffffffffffffffffffffffffffffffff1614151561066e57600080fd5b610676610bba565b90508091505090565b600260009054906101000a900473ffffffffffffffffffffffffffffffffffffffff1681565b60008060003373ffffffffffffffffffffffffffffffffffffffff16600260009054906101000a900473ffffffffffffffffffffffffffffffffffffffff1673ffffffffffffffffffffffffffffffffffffffff1614151561070657600080fd5b61070e610bba565b9150600260009054906101000a900473ffffffffffffffffffffffffffffffffffffffff1673ffffffffffffffffffffffffffffffffffffffff168273ffffffffffffffffffffffffffffffffffffffff1614156107e457600260009054906101000a900473ffffffffffffffffffffffffffffffffffffffff1673ffffffffffffffffffffffffffffffffffffffff166108fc3073ffffffffffffffffffffffffffffffffffffffff16319081150290604051600060405180830381858888f1935050505015156107df57600080fd5b6108c4565b60023073ffffffffffffffffffffffffffffffffffffffff163181151561080757fe5b0490508173ffffffffffffffffffffffffffffffffffffffff166108fc829081150290604051600060405180830381858888f19350505050151561084a57600080fd5b600260009054906101000a900473ffffffffffffffffffffffffffffffffffffffff1673ffffffffffffffffffffffffffffffffffffffff166108fc3073ffffffffffffffffffffffffffffffffffffffff16319081150290604051600060405180830381858888f1935050505015156108c357600080fd5b5b3073ffffffffffffffffffffffffffffffffffffffff16319250505090565b6000600354905090565b60006020528060005260406000206000915090508060000160009054906101000a900473ffffffffffffffffffffffffffffffffffffffff16908060010154905082565b336000803373ffffffffffffffffffffffffffffffffffffffff1673ffffffffffffffffffffffffffffffffffffffff16815260200190815260200160002060000160006101000a81548173ffffffffffffffffffffffffffffffffffffffff021916908373ffffffffffffffffffffffffffffffffffffffff16021790555060008060003373ffffffffffffffffffffffffffffffffffffffff1673ffffffffffffffffffffffffffffffffffffffff1681526020019081526020016000206001018190555060018054806001018281610a0c9190610d55565b9160005260206000209001600033909190916101000a81548173ffffffffffffffffffffffffffffffffffffffff021916908373ffffffffffffffffffffffffffffffffffffffff16021790555050565b6000806000809250670de0b6b3a764000034811515610a7857fe5b049150600090505b600180549050811015610b11573373ffffffffffffffffffffffffffffffffffffffff16600182815481101515610ab357fe5b906000526020600020900160009054906101000a900473ffffffffffffffffffffffffffffffffffffffff1673ffffffffffffffffffffffffffffffffffffffff161415610b045760019250610b11565b8080600101915050610a80565b6001831415610b6a57816000803373ffffffffffffffffffffffffffffffffffffffff1673ffffffffffffffffffffffffffffffffffffffff168152602001908152602001600020600101600082825401925050819055505b505050565b60008060008373ffffffffffffffffffffffffffffffffffffffff1673ffffffffffffffffffffffffffffffffffffffff168152602001908152602001600020600101549050919050565b600080600080600092505b600180549050831015610ce957600080600185815481101515610be457fe5b906000526020600020900160009054906101000a900473ffffffffffffffffffffffffffffffffffffffff1673ffffffffffffffffffffffffffffffffffffffff1673ffffffffffffffffffffffffffffffffffffffff1681526020019081526020016000209150600090505b8160020180549050811015610cdc57600354600019168260020182815481101515610c7857fe5b906000526020600020900154604051808281526020019150506040518091039020600019161415610ccf578160000160009054906101000a900473ffffffffffffffffffffffffffffffffffffffff169350610d0f565b8080600101915050610c51565b8280600101935050610bc5565b600260009054906101000a900473ffffffffffffffffffffffffffffffffffffffff1693505b50505090565b815481835581811511610d3c57818360005260206000209182019101610d3b9190610d81565b5b505050565b602060405190810160405280600081525090565b815481835581811511610d7c57818360005260206000209182019101610d7b9190610d81565b5b505050565b610da391905b80821115610d9f576000816000905550600101610d87565b5090565b905600a165627a7a723058201faeb7fc2a6160d3ef691bd76bd071f9e1b633d9656b98ad134d058cbf5525180029",
  "source": "pragma solidity ^0.4.17;\r\n//the pragma line is the preprocessor directive, tells the version of solidity compiler\r\n\r\ncontract Lottery {\r\n\t//struct used to store the user information\r\n\tstruct User {\r\n\t\taddress userAddress;\r\n\t\tuint tokensBought;\r\n    uint[] guess;\r\n\t}\r\n\r\n\t// a list of the users\r\n\tmapping (address => User) public users;\r\n\r\n  address[] public userAddresses;\r\n\r\n\taddress public owner;\r\n\tbytes32 winningGuessSha3;\r\n\r\n\t//contructor function\r\n\tfunction Lottery(uint _winningGuess) {\r\n\t\t// by default the owner of the contract is accounts[0] to set the owner change truffle.js\r\n\t\towner = msg.sender;\r\n\t\twinningGuessSha3 = keccak256(_winningGuess);\r\n\t}\r\n\r\n  // returns the number of tokens purchased by an account\r\n  function userTokens(address _user) view public returns (uint) {\r\n    return users[_user].tokensBought;\r\n  }\r\n\r\n  // returns the guess made by user so far\r\n  function userGuesses(address _user) view public returns(uint[]) {\r\n    return users[_user].guess;\r\n  }\r\n\r\n  // returns the winning guess\r\n  function winningGuess() view public returns(bytes32) {\r\n    return winningGuessSha3;\r\n  }\r\n\r\n  // to add a new user to the contract to make guesses\r\n  function makeUser() public{\r\n    users[msg.sender].userAddress = msg.sender;\r\n    users[msg.sender].tokensBought = 0;\r\n    userAddresses.push(msg.sender);\r\n  }\r\n\r\n\t// function to add tokens to the user that calls the contract\r\n  // the money held in contract is sent using a payable modifier function\r\n  // money can be released using selfdestruct(address)\r\n\tfunction addTokens() payable {\r\n    uint present = 0;\r\n    uint tokensToAdd = msg.value/(10**18);\r\n\r\n    for(uint i = 0; i < userAddresses.length; i++) {\r\n      if(userAddresses[i] == msg.sender) {\r\n        present = 1;\r\n        break;\r\n      }\r\n    }\r\n\r\n    // adding tokens if the user present in the userAddresses array\r\n    if (present == 1) {\r\n      users[msg.sender].tokensBought += tokensToAdd;\r\n    }\r\n\t}\r\n\r\n\t// to add user guesses\r\n\tfunction makeGuess(uint _userGuess) {\r\n    require(_userGuess < 1000000 && users[msg.sender].tokensBought > 0);\r\n    users[msg.sender].guess.push(_userGuess);\r\n    users[msg.sender].tokensBought--;\r\n\t}\r\n\r\n\t// doesn't allow anyone to buy anymore tokens\r\n\tfunction closeGame() returns(address){\r\n    // can only be called my the owner of the contract\r\n\t\trequire(owner == msg.sender);\r\n    address winner = winnerAddress();\r\n    return winner;\r\n\t}\r\n\r\n\t// returns the address of the winner once the game is closed\r\n\tfunction winnerAddress() returns(address) {\r\n    for(uint i = 0; i < userAddresses.length; i++) {\r\n      User user= users[userAddresses[i]];\r\n\r\n      for(uint j = 0; j < user.guess.length; j++) {\r\n        if (keccak256(user.guess[j]) == winningGuessSha3) {\r\n          return user.userAddress;\r\n        }\r\n      }\r\n    }\r\n    // the owner wins if there are no winning guesses\r\n    return owner;\r\n\t}\r\n\r\n\t// sends 50% of the ETH in contract to the winner and rest of it to the owner\r\n\tfunction getPrice() returns (uint){\r\n    require(owner == msg.sender);\r\n    address winner = winnerAddress();\r\n    if (winner == owner) {\r\n      owner.transfer(address(this).balance);\r\n    } else {\r\n      // returns the half the balance of the contract\r\n      uint toTransfer = address(this).balance / 2;\r\n\r\n      // transfer 50% to the winner\r\n      winner.transfer(toTransfer);\r\n      // transfer rest of the balance to the owner of the contract\r\n      owner.transfer(address(this).balance);\r\n    }\r\n    return address(this).balance;\r\n\t}\r\n}\r\n",
  "sourcePath": "C:\\Users\\PC\\Lottery-DApp\\contracts\\Lottery.sol",
  "compiler": {
    "name": "solc",
    "version": "0.4.17+commit.bdeb9e52.Emscripten.clang"
  },
  "schemaVersion": "3.2.0",
  "updatedAt": "2020-06-19T18:50:43.579Z",
  "devdoc": {
    "methods": {}
  },
  "userdoc": {
    "methods": {}
  }
}