{
  "contractName": "Lottery",
  "abi": [
    {
      "constant": true,
      "inputs": [
        {
          "name": "",
          "type": "uint256"
        }
      ],
      "name": "userAddresses",
      "outputs": [
        {
          "name": "",
          "type": "address"
        }
      ],
      "payable": false,
      "stateMutability": "view",
      "type": "function"
    },
    {
      "constant": true,
      "inputs": [],
      "name": "owner",
      "outputs": [
        {
          "name": "",
          "type": "address"
        }
      ],
      "payable": false,
      "stateMutability": "view",
      "type": "function"
    },
    {
      "constant": true,
      "inputs": [
        {
          "name": "",
          "type": "address"
        }
      ],
      "name": "users",
      "outputs": [
        {
          "name": "userAddress",
          "type": "address"
        },
        {
          "name": "tokensBought",
          "type": "uint256"
        }
      ],
      "payable": false,
      "stateMutability": "view",
      "type": "function"
    },
    {
      "inputs": [],
      "payable": false,
      "stateMutability": "nonpayable",
      "type": "constructor"
    },
    {
      "constant": true,
      "inputs": [
        {
          "name": "_user",
          "type": "address"
        }
      ],
      "name": "userTokens",
      "outputs": [
        {
          "name": "",
          "type": "uint256"
        }
      ],
      "payable": false,
      "stateMutability": "view",
      "type": "function"
    },
    {
      "constant": true,
      "inputs": [
        {
          "name": "_user",
          "type": "address"
        }
      ],
      "name": "userGuesses",
      "outputs": [
        {
          "name": "",
          "type": "uint256[]"
        }
      ],
      "payable": false,
      "stateMutability": "view",
      "type": "function"
    },
    {
      "constant": true,
      "inputs": [],
      "name": "winningGuess",
      "outputs": [
        {
          "name": "",
          "type": "uint256"
        }
      ],
      "payable": false,
      "stateMutability": "view",
      "type": "function"
    },
    {
      "constant": false,
      "inputs": [],
      "name": "makeUser",
      "outputs": [],
      "payable": false,
      "stateMutability": "nonpayable",
      "type": "function"
    },
    {
      "constant": false,
      "inputs": [
        {
          "name": "tokensToAdd",
          "type": "uint256"
        }
      ],
      "name": "addTokens",
      "outputs": [],
      "payable": true,
      "stateMutability": "payable",
      "type": "function"
    },
    {
      "constant": false,
      "inputs": [],
      "name": "disposeTickets",
      "outputs": [],
      "payable": false,
      "stateMutability": "nonpayable",
      "type": "function"
    },
    {
      "constant": false,
      "inputs": [
        {
          "name": "_userGuess",
          "type": "uint256[]"
        }
      ],
      "name": "makeGuess",
      "outputs": [],
      "payable": false,
      "stateMutability": "nonpayable",
      "type": "function"
    },
    {
      "constant": false,
      "inputs": [
        {
          "name": "_winningticket",
          "type": "uint256"
        }
      ],
      "name": "closeGame",
      "outputs": [
        {
          "name": "",
          "type": "address"
        }
      ],
      "payable": false,
      "stateMutability": "nonpayable",
      "type": "function"
    },
    {
      "constant": false,
      "inputs": [],
      "name": "winnerAddress",
      "outputs": [
        {
          "name": "",
          "type": "address"
        }
      ],
      "payable": false,
      "stateMutability": "nonpayable",
      "type": "function"
    },
    {
      "constant": false,
      "inputs": [],
      "name": "getPrice",
      "outputs": [
        {
          "name": "",
          "type": "uint256"
        }
      ],
      "payable": false,
      "stateMutability": "nonpayable",
      "type": "function"
    }
  ],
  "bytecode": "0x6060604052341561000f57600080fd5b33600260006101000a81548173ffffffffffffffffffffffffffffffffffffffff021916908373ffffffffffffffffffffffffffffffffffffffff160217905550610f968061005f6000396000f300606060405236156100c3576000357c0100000000000000000000000000000000000000000000000000000000900463ffffffff1680632d6ef310146100c857806341b7a8481461012b578063445a5fa314610185578063502c9bd514610213578063662a1f57146102765780638da5cb5b1461028b57806398d5fdca146102e057806398da61af14610309578063a87430ba14610332578063c6ed8990146103b2578063d18a524a146103ca578063ed498fa8146103df578063ed7a4e0b1461042c575b600080fd5b34156100d357600080fd5b6100e96004808035906020019091905050610481565b604051808273ffffffffffffffffffffffffffffffffffffffff1673ffffffffffffffffffffffffffffffffffffffff16815260200191505060405180910390f35b341561013657600080fd5b61018360048080359060200190820180359060200190808060200260200160405190810160405280939291908181526020018383602002808284378201915050505050509190505061051a565b005b341561019057600080fd5b6101bc600480803573ffffffffffffffffffffffffffffffffffffffff16906020019091905050610693565b6040518080602001828103825283818151815260200191508051906020019060200280838360005b838110156101ff5780820151818401526020810190506101e4565b505050509050019250505060405180910390f35b341561021e57600080fd5b6102346004808035906020019091905050610732565b604051808273ffffffffffffffffffffffffffffffffffffffff1673ffffffffffffffffffffffffffffffffffffffff16815260200191505060405180910390f35b341561028157600080fd5b610289610771565b005b341561029657600080fd5b61029e61082e565b604051808273ffffffffffffffffffffffffffffffffffffffff1673ffffffffffffffffffffffffffffffffffffffff16815260200191505060405180910390f35b34156102eb57600080fd5b6102f3610854565b6040518082815260200191505060405180910390f35b341561031457600080fd5b61031c610a92565b6040518082815260200191505060405180910390f35b341561033d57600080fd5b610369600480803573ffffffffffffffffffffffffffffffffffffffff16906020019091905050610a9c565b604051808373ffffffffffffffffffffffffffffffffffffffff1673ffffffffffffffffffffffffffffffffffffffff1681526020018281526020019250505060405180910390f35b6103c86004808035906020019091905050610ae0565b005b34156103d557600080fd5b6103dd610bdb565b005b34156103ea57600080fd5b610416600480803573ffffffffffffffffffffffffffffffffffffffff16906020019091905050610d07565b6040518082815260200191505060405180910390f35b341561043757600080fd5b61043f610d52565b604051808273ffffffffffffffffffffffffffffffffffffffff1673ffffffffffffffffffffffffffffffffffffffff16815260200191505060405180910390f35b6000803373ffffffffffffffffffffffffffffffffffffffff16600260009054906101000a900473ffffffffffffffffffffffffffffffffffffffff1673ffffffffffffffffffffffffffffffffffffffff161415156104e057600080fd5b82600481905550826040518082815260200191505060405180910390206003816000191690555061050f610d52565b905080915050919050565b6000806000803373ffffffffffffffffffffffffffffffffffffffff1673ffffffffffffffffffffffffffffffffffffffff1681526020019081526020016000206001015411151561056b57600080fd5b600090505b8151811015610605576000803373ffffffffffffffffffffffffffffffffffffffff1673ffffffffffffffffffffffffffffffffffffffff16815260200190815260200160002060020180548060010182816105cc9190610ead565b9160005260206000209001600084848151811015156105e757fe5b90602001906020020151909190915055508080600101915050610570565b81516000803373ffffffffffffffffffffffffffffffffffffffff1673ffffffffffffffffffffffffffffffffffffffff16815260200190815260200160002060010154036000803373ffffffffffffffffffffffffffffffffffffffff1673ffffffffffffffffffffffffffffffffffffffff168152602001908152602001600020600101819055505050565b61069b610ed9565b6000808373ffffffffffffffffffffffffffffffffffffffff1673ffffffffffffffffffffffffffffffffffffffff16815260200190815260200160002060020180548060200260200160405190810160405280929190818152602001828054801561072657602002820191906000526020600020905b815481526020019060010190808311610712575b50505050509050919050565b60018181548110151561074157fe5b90600052602060002090016000915054906101000a900473ffffffffffffffffffffffffffffffffffffffff1681565b6000806000803373ffffffffffffffffffffffffffffffffffffffff1673ffffffffffffffffffffffffffffffffffffffff168152602001908152602001600020600201805490509150600090505b8181101561082a576000803373ffffffffffffffffffffffffffffffffffffffff1673ffffffffffffffffffffffffffffffffffffffff16815260200190815260200160002060020180548091906001900361081c9190610eed565b5080806001019150506107c0565b5050565b600260009054906101000a900473ffffffffffffffffffffffffffffffffffffffff1681565b60008060003373ffffffffffffffffffffffffffffffffffffffff16600260009054906101000a900473ffffffffffffffffffffffffffffffffffffffff1673ffffffffffffffffffffffffffffffffffffffff161415156108b557600080fd5b6108bd610d52565b9150600260009054906101000a900473ffffffffffffffffffffffffffffffffffffffff1673ffffffffffffffffffffffffffffffffffffffff168273ffffffffffffffffffffffffffffffffffffffff16141561099357600260009054906101000a900473ffffffffffffffffffffffffffffffffffffffff1673ffffffffffffffffffffffffffffffffffffffff166108fc3073ffffffffffffffffffffffffffffffffffffffff16319081150290604051600060405180830381858888f19350505050151561098e57600080fd5b610a73565b60023073ffffffffffffffffffffffffffffffffffffffff16318115156109b657fe5b0490508173ffffffffffffffffffffffffffffffffffffffff166108fc829081150290604051600060405180830381858888f1935050505015156109f957600080fd5b600260009054906101000a900473ffffffffffffffffffffffffffffffffffffffff1673ffffffffffffffffffffffffffffffffffffffff166108fc3073ffffffffffffffffffffffffffffffffffffffff16319081150290604051600060405180830381858888f193505050501515610a7257600080fd5b5b3073ffffffffffffffffffffffffffffffffffffffff16319250505090565b6000600454905090565b60006020528060005260406000206000915090508060000160009054906101000a900473ffffffffffffffffffffffffffffffffffffffff16908060010154905082565b60008060009150600090505b600180549050811015610b7d573373ffffffffffffffffffffffffffffffffffffffff16600182815481101515610b1f57fe5b906000526020600020900160009054906101000a900473ffffffffffffffffffffffffffffffffffffffff1673ffffffffffffffffffffffffffffffffffffffff161415610b705760019150610b7d565b8080600101915050610aec565b6001821415610bd657826000803373ffffffffffffffffffffffffffffffffffffffff1673ffffffffffffffffffffffffffffffffffffffff168152602001908152602001600020600101600082825401925050819055505b505050565b336000803373ffffffffffffffffffffffffffffffffffffffff1673ffffffffffffffffffffffffffffffffffffffff16815260200190815260200160002060000160006101000a81548173ffffffffffffffffffffffffffffffffffffffff021916908373ffffffffffffffffffffffffffffffffffffffff16021790555060008060003373ffffffffffffffffffffffffffffffffffffffff1673ffffffffffffffffffffffffffffffffffffffff1681526020019081526020016000206001018190555060018054806001018281610cb69190610f19565b9160005260206000209001600033909190916101000a81548173ffffffffffffffffffffffffffffffffffffffff021916908373ffffffffffffffffffffffffffffffffffffffff16021790555050565b60008060008373ffffffffffffffffffffffffffffffffffffffff1673ffffffffffffffffffffffffffffffffffffffff168152602001908152602001600020600101549050919050565b600080600080600092505b600180549050831015610e8157600080600185815481101515610d7c57fe5b906000526020600020900160009054906101000a900473ffffffffffffffffffffffffffffffffffffffff1673ffffffffffffffffffffffffffffffffffffffff1673ffffffffffffffffffffffffffffffffffffffff1681526020019081526020016000209150600090505b8160020180549050811015610e7457600354600019168260020182815481101515610e1057fe5b906000526020600020900154604051808281526020019150506040518091039020600019161415610e67578160000160009054906101000a900473ffffffffffffffffffffffffffffffffffffffff169350610ea7565b8080600101915050610de9565b8280600101935050610d5d565b600260009054906101000a900473ffffffffffffffffffffffffffffffffffffffff1693505b50505090565b815481835581811511610ed457818360005260206000209182019101610ed39190610f45565b5b505050565b602060405190810160405280600081525090565b815481835581811511610f1457818360005260206000209182019101610f139190610f45565b5b505050565b815481835581811511610f4057818360005260206000209182019101610f3f9190610f45565b5b505050565b610f6791905b80821115610f63576000816000905550600101610f4b565b5090565b905600a165627a7a72305820254d4b761633303e9f71d98307b0d4e2a96feaeb5ace196b22298814d849695a0029",
  "source": "pragma solidity ^0.4.17;\r\n//the pragma line is the preprocessor directive, tells the version of solidity compiler\r\n\r\ncontract Lottery {\r\n\t//struct used to store the user information\r\n\tstruct User {\r\n\t\taddress userAddress;\r\n\t\tuint tokensBought;\r\n    uint[] guess;\r\n\t}\r\n\r\n\t// a list of the users\r\n\tmapping (address => User) public users;\r\n\r\n  address[] public userAddresses;\r\n\r\n\taddress public owner;\r\n\tbytes32 winningGuessSha3;\r\n  uint r;\r\n\r\n\t//contructor function\r\n\tfunction Lottery () {\r\n\t\t// by default the owner of the contract is accounts[0] to set the owner change truffle.js\r\n\t\towner = msg.sender;\r\n\t\t\r\n\t}\r\n\r\n  // returns the SHA3  for the winning ticket\r\n  //function finalRunTicket (uint _winningticket)  {\r\n    //winningGuessSha3 = keccak256(_winningticket);\r\n  //}\r\n  // returns the number of tokens purchased by an account\r\n  function userTokens(address _user) view public returns (uint) {\r\n    return users[_user].tokensBought;\r\n  }\r\n\r\n  // returns the guess made by user so far\r\n  function userGuesses(address _user) view public returns(uint[]) {\r\n    return users[_user].guess;\r\n  }\r\n\r\n  // returns the winning guess\r\n  function winningGuess() view public returns(uint) {\r\n    return r;\r\n  }\r\n\r\n  // to add a new user to the contract to make guesses\r\n  function makeUser() public{\r\n    users[msg.sender].userAddress = msg.sender;\r\n    users[msg.sender].tokensBought = 0;\r\n    userAddresses.push(msg.sender);\r\n\r\n  }\r\n\r\n\t// function to add tokens to the user that calls the contract\r\n  // the money held in contract is sent using a payable modifier function\r\n  // money can be released using selfdestruct(address)\r\n\tfunction addTokens(uint tokensToAdd) payable {\r\n    uint present = 0;\r\n    //uint tokensToAdd = msg.value/(10**18);\r\n    \r\n\r\n    for(uint i = 0; i < userAddresses.length; i++) {\r\n      if(userAddresses[i] == msg.sender) {\r\n        present = 1;\r\n        break;\r\n      }\r\n    }\r\n\r\n    // adding tokens if the user present in the userAddresses array\r\n    if (present == 1) {\r\n      users[msg.sender].tokensBought += tokensToAdd;\r\n    }\r\n\t}\r\n\r\n  function disposeTickets(){\r\n    //for (uint j=0;j<users[msg.sender].guess.length;j++) {\r\n      //  delete users[msg.sender].guess[j];\r\n        \r\n     // }\r\n     uint a =users[msg.sender].guess.length;\r\n     for (uint j=0;j<a;j++) {\r\n      //delete users[msg.sender].guess[users[msg.sender].guess.length-1];\r\n      users[msg.sender].guess.length--;\r\n    }\r\n      //return items;\r\n\r\n  }\r\n\r\n  function makeGuess(uint[] _userGuess) {\r\n    //uint flag=0;\r\n\r\n    require (users[msg.sender].tokensBought > 0);\r\n    \r\n      for (uint j=0;j<_userGuess.length;j++) {\r\n        users[msg.sender].guess.push(_userGuess[j]);\r\n        \r\n      }\r\n      users[msg.sender].tokensBought=users[msg.sender].tokensBought - _userGuess.length;\r\n      \r\n  }\r\n    \r\n\t//function makeGuess(uint _userGuess) {\r\n    //require(_userGuess < 1000000 && users[msg.sender].tokensBought > 0);\r\n    //users[msg.sender].guess.push(_userGuess);\r\n    //users[msg.sender].tokensBought--;\r\n\t//}\r\n\r\n\t// doesn't allow anyone to buy anymore tokens\r\n\t//function closeGame(uint _winningticket) returns(address){\r\n    // can only be called by the owner of the contract\r\n\t\t//require(owner == msg.sender);\r\n    //winningGuessSha3 = keccak256(_winningticket);\r\n    //address winner = winnerAddress();\r\n    //return winner;\r\n\t//}\r\n  function closeGame(uint _winningticket) returns(address){\r\n    // can only be called by the owner of the contract\r\n    require(owner == msg.sender);\r\n    r= _winningticket;\r\n    winningGuessSha3 = keccak256(_winningticket);\r\n    \r\n    //winningGuessSha3 = keccak256(_winningticket);\r\n    address winner = winnerAddress();\r\n    return winner;\r\n  }\r\n\r\n\t// returns the address of the winner once the game is closed\r\n\tfunction winnerAddress() returns(address) {\r\n    for(uint i = 0; i < userAddresses.length; i++) {\r\n      User user= users[userAddresses[i]];\r\n\r\n      for(uint j = 0; j < user.guess.length; j++) {\r\n        if (keccak256(user.guess[j]) == winningGuessSha3) {\r\n          return user.userAddress;\r\n        }\r\n      }\r\n    }\r\n    // the owner wins if there are no winning guesses\r\n    return owner;\r\n\t}\r\n\r\n\t// sends 50% of the ETH in contract to the winner and rest of it to the owner\r\n\tfunction getPrice() returns (uint){\r\n    require(owner == msg.sender);\r\n    address winner = winnerAddress();\r\n    if (winner == owner) {\r\n      owner.transfer(address(this).balance);\r\n    } else {\r\n      // returns the half the balance of the contract\r\n      uint toTransfer = address(this).balance / 2;\r\n\r\n      // transfer 50% to the winner\r\n      winner.transfer(toTransfer);\r\n      // transfer rest of the balance to the owner of the contract\r\n      owner.transfer(address(this).balance);\r\n    }\r\n    return address(this).balance;\r\n\t}\r\n}",
  "sourcePath": "C:\\Users\\ARJIT MITTAL\\Desktop\\Lottery-DApp\\migrations\\contracts\\Lottery.sol",
  "compiler": {
    "name": "solc",
    "version": "0.4.17+commit.bdeb9e52.Emscripten.clang"
  },
  "schemaVersion": "3.2.0",
  "updatedAt": "2020-07-10T12:56:19.836Z",
  "networkType": "ethereum",
  "devdoc": {
    "methods": {}
  },
  "userdoc": {
    "methods": {}
  }
}